{
  "_format": "hh-sol-artifact-1",
  "contractName": "RewardsManagement",
  "sourceName": "contracts/RewardsManagement.sol",
  "abi": [
    {
      "inputs": [
        {
          "internalType": "contract RewardsTask",
          "name": "_task",
          "type": "address"
        }
      ],
      "name": "approve",
      "outputs": [],
      "stateMutability": "nonpayable",
      "type": "function"
    },
    {
      "inputs": [
        {
          "internalType": "string",
          "name": "_description",
          "type": "string"
        },
        {
          "internalType": "uint256",
          "name": "_reward",
          "type": "uint256"
        },
        {
          "internalType": "contract RewardsToken",
          "name": "_rewardsToken",
          "type": "address"
        }
      ],
      "name": "createTask",
      "outputs": [],
      "stateMutability": "nonpayable",
      "type": "function"
    },
    {
      "inputs": [
        {
          "internalType": "address",
          "name": "owner",
          "type": "address"
        }
      ],
      "name": "getOwnerTasks",
      "outputs": [
        {
          "internalType": "contract RewardsTask[]",
          "name": "",
          "type": "address[]"
        }
      ],
      "stateMutability": "view",
      "type": "function"
    },
    {
      "inputs": [],
      "name": "getTasks",
      "outputs": [
        {
          "internalType": "contract RewardsTask[]",
          "name": "",
          "type": "address[]"
        }
      ],
      "stateMutability": "view",
      "type": "function"
    },
    {
      "inputs": [
        {
          "internalType": "contract RewardsTask",
          "name": "_task",
          "type": "address"
        }
      ],
      "name": "isRequireApproval",
      "outputs": [
        {
          "internalType": "bool",
          "name": "",
          "type": "bool"
        }
      ],
      "stateMutability": "view",
      "type": "function"
    },
    {
      "inputs": [
        {
          "internalType": "contract RewardsTask",
          "name": "task",
          "type": "address"
        }
      ],
      "name": "notifyRequireApproval",
      "outputs": [],
      "stateMutability": "nonpayable",
      "type": "function"
    },
    {
      "inputs": [
        {
          "internalType": "contract RewardsTask",
          "name": "_task",
          "type": "address"
        }
      ],
      "name": "reject",
      "outputs": [],
      "stateMutability": "nonpayable",
      "type": "function"
    }
  ],
  "bytecode": "0x608060405234801561001057600080fd5b50613661806100206000396000f3fe60806040523480156200001157600080fd5b5060043610620000885760003560e01c80639628f21711620000635780639628f21714620000ef578063ab0da5a91462000125578063b2205eb21462000145578063daea85c5146200017b5762000088565b806304270817146200008d57806304a87e3814620000ad57806311a8f8fb14620000cf575b600080fd5b620000ab6004803603810190620000a5919062000e0e565b6200019b565b005b620000b76200042f565b604051620000c6919062000fb6565b60405180910390f35b620000ed6004803603810190620000e791906200101f565b620004bf565b005b6200010d600480360381019062000107919062001082565b6200051a565b6040516200011c919062000fb6565b60405180910390f35b6200014360048036038101906200013d91906200101f565b620005e9565b005b6200016360048036038101906200015d91906200101f565b6200080c565b604051620001729190620010d1565b60405180910390f35b6200019960048036038101906200019391906200101f565b62000862565b005b600084843084604051620001af9062000cd4565b620001be94939291906200119c565b604051809103906000f080158015620001db573d6000803e3d6000fd5b5090508173ffffffffffffffffffffffffffffffffffffffff166340c10f1982856040518363ffffffff1660e01b81526004016200021b92919062001204565b600060405180830381600087803b1580156200023657600080fd5b505af11580156200024b573d6000803e3d6000fd5b505050506000819080600181540180825580915050600190039060005260206000200160009091909190916101000a81548173ffffffffffffffffffffffffffffffffffffffff021916908373ffffffffffffffffffffffffffffffffffffffff160217905550600160003373ffffffffffffffffffffffffffffffffffffffff1673ffffffffffffffffffffffffffffffffffffffff168152602001908152602001600020819080600181540180825580915050600190039060005260206000200160009091909190916101000a81548173ffffffffffffffffffffffffffffffffffffffff021916908373ffffffffffffffffffffffffffffffffffffffff16021790555033600260008373ffffffffffffffffffffffffffffffffffffffff1673ffffffffffffffffffffffffffffffffffffffff16815260200190815260200160002060006101000a81548173ffffffffffffffffffffffffffffffffffffffff021916908373ffffffffffffffffffffffffffffffffffffffff1602179055506000600360008373ffffffffffffffffffffffffffffffffffffffff1673ffffffffffffffffffffffffffffffffffffffff16815260200190815260200160002060006101000a81548160ff0219169083151502179055505050505050565b60606000805480602002602001604051908101604052809291908181526020018280548015620004b557602002820191906000526020600020905b8160009054906101000a900473ffffffffffffffffffffffffffffffffffffffff1673ffffffffffffffffffffffffffffffffffffffff16815260200190600101908083116200046a575b5050505050905090565b6001600360008373ffffffffffffffffffffffffffffffffffffffff1673ffffffffffffffffffffffffffffffffffffffff16815260200190815260200160002060006101000a81548160ff02191690831515021790555050565b6060600160008373ffffffffffffffffffffffffffffffffffffffff1673ffffffffffffffffffffffffffffffffffffffff168152602001908152602001600020805480602002602001604051908101604052809291908181526020018280548015620005dd57602002820191906000526020600020905b8160009054906101000a900473ffffffffffffffffffffffffffffffffffffffff1673ffffffffffffffffffffffffffffffffffffffff168152602001906001019080831162000592575b50505050509050919050565b3373ffffffffffffffffffffffffffffffffffffffff16600260008373ffffffffffffffffffffffffffffffffffffffff1673ffffffffffffffffffffffffffffffffffffffff16815260200190815260200160002060009054906101000a900473ffffffffffffffffffffffffffffffffffffffff1673ffffffffffffffffffffffffffffffffffffffff1614620006b9576040517f08c379a0000000000000000000000000000000000000000000000000000000008152600401620006b09062001281565b60405180910390fd5b60011515600360008373ffffffffffffffffffffffffffffffffffffffff1673ffffffffffffffffffffffffffffffffffffffff16815260200190815260200160002060009054906101000a900460ff161515146200074f576040517f08c379a00000000000000000000000000000000000000000000000000000000081526004016200074690620012f3565b60405180910390fd5b8073ffffffffffffffffffffffffffffffffffffffff16634dc415de6040518163ffffffff1660e01b8152600401600060405180830381600087803b1580156200079857600080fd5b505af1158015620007ad573d6000803e3d6000fd5b505050506000600360008373ffffffffffffffffffffffffffffffffffffffff1673ffffffffffffffffffffffffffffffffffffffff16815260200190815260200160002060006101000a81548160ff02191690831515021790555050565b6000600360008373ffffffffffffffffffffffffffffffffffffffff1673ffffffffffffffffffffffffffffffffffffffff16815260200190815260200160002060009054906101000a900460ff169050919050565b3373ffffffffffffffffffffffffffffffffffffffff16600260008373ffffffffffffffffffffffffffffffffffffffff1673ffffffffffffffffffffffffffffffffffffffff16815260200190815260200160002060009054906101000a900473ffffffffffffffffffffffffffffffffffffffff1673ffffffffffffffffffffffffffffffffffffffff161462000932576040517f08c379a0000000000000000000000000000000000000000000000000000000008152600401620009299062001365565b60405180910390fd5b60011515600360008373ffffffffffffffffffffffffffffffffffffffff1673ffffffffffffffffffffffffffffffffffffffff16815260200190815260200160002060009054906101000a900460ff16151514620009c8576040517f08c379a0000000000000000000000000000000000000000000000000000000008152600401620009bf90620012f3565b60405180910390fd5b8073ffffffffffffffffffffffffffffffffffffffff166312424e3f6040518163ffffffff1660e01b8152600401600060405180830381600087803b15801562000a1157600080fd5b505af115801562000a26573d6000803e3d6000fd5b5050505062000a3781600062000b35565b62000a8181600160003373ffffffffffffffffffffffffffffffffffffffff1673ffffffffffffffffffffffffffffffffffffffff16815260200190815260200160002062000b35565b600260008273ffffffffffffffffffffffffffffffffffffffff1673ffffffffffffffffffffffffffffffffffffffff16815260200190815260200160002060006101000a81549073ffffffffffffffffffffffffffffffffffffffff0219169055600360008273ffffffffffffffffffffffffffffffffffffffff1673ffffffffffffffffffffffffffffffffffffffff16815260200190815260200160002060006101000a81549060ff021916905550565b60005b818054905081101562000ccf578273ffffffffffffffffffffffffffffffffffffffff1682828154811062000b725762000b7162001387565b5b9060005260206000200160009054906101000a900473ffffffffffffffffffffffffffffffffffffffff1673ffffffffffffffffffffffffffffffffffffffff160362000cb957816001838054905062000bcd9190620013e5565b8154811062000be15762000be062001387565b5b9060005260206000200160009054906101000a900473ffffffffffffffffffffffffffffffffffffffff1682828154811062000c225762000c2162001387565b5b9060005260206000200160006101000a81548173ffffffffffffffffffffffffffffffffffffffff021916908373ffffffffffffffffffffffffffffffffffffffff1602179055508180548062000c7e5762000c7d62001420565b5b6001900381819060005260206000200160006101000a81549073ffffffffffffffffffffffffffffffffffffffff0219169055905562000ccf565b808062000cc6906200144f565b91505062000b38565b505050565b61218f806200149d83390190565b600080fd5b600080fd5b600080fd5b600080fd5b600080fd5b60008083601f84011262000d145762000d1362000cec565b5b8235905067ffffffffffffffff81111562000d345762000d3362000cf1565b5b60208301915083600182028301111562000d535762000d5262000cf6565b5b9250929050565b6000819050919050565b62000d6f8162000d5a565b811462000d7b57600080fd5b50565b60008135905062000d8f8162000d64565b92915050565b600073ffffffffffffffffffffffffffffffffffffffff82169050919050565b600062000dc28262000d95565b9050919050565b600062000dd68262000db5565b9050919050565b62000de88162000dc9565b811462000df457600080fd5b50565b60008135905062000e088162000ddd565b92915050565b6000806000806060858703121562000e2b5762000e2a62000ce2565b5b600085013567ffffffffffffffff81111562000e4c5762000e4b62000ce7565b5b62000e5a8782880162000cfb565b9450945050602062000e6f8782880162000d7e565b925050604062000e828782880162000df7565b91505092959194509250565b600081519050919050565b600082825260208201905092915050565b6000819050602082019050919050565b6000819050919050565b600062000ee562000edf62000ed98462000d95565b62000eba565b62000d95565b9050919050565b600062000ef98262000ec4565b9050919050565b600062000f0d8262000eec565b9050919050565b62000f1f8162000f00565b82525050565b600062000f33838362000f14565b60208301905092915050565b6000602082019050919050565b600062000f598262000e8e565b62000f65818562000e99565b935062000f728362000eaa565b8060005b8381101562000fa957815162000f8d888262000f25565b975062000f9a8362000f3f565b92505060018101905062000f76565b5085935050505092915050565b6000602082019050818103600083015262000fd2818462000f4c565b905092915050565b600062000fe78262000db5565b9050919050565b62000ff98162000fda565b81146200100557600080fd5b50565b600081359050620010198162000fee565b92915050565b60006020828403121562001038576200103762000ce2565b5b6000620010488482850162001008565b91505092915050565b6200105c8162000db5565b81146200106857600080fd5b50565b6000813590506200107c8162001051565b92915050565b6000602082840312156200109b576200109a62000ce2565b5b6000620010ab848285016200106b565b91505092915050565b60008115159050919050565b620010cb81620010b4565b82525050565b6000602082019050620010e86000830184620010c0565b92915050565b600082825260208201905092915050565b82818337600083830152505050565b6000601f19601f8301169050919050565b60006200112d8385620010ee565b93506200113c838584620010ff565b62001147836200110e565b840190509392505050565b60006200115f8262000eec565b9050919050565b620011718162001152565b82525050565b6000620011848262000eec565b9050919050565b620011968162001177565b82525050565b60006060820190508181036000830152620011b98186886200111f565b9050620011ca602083018562001166565b620011d960408301846200118b565b95945050505050565b620011ed8162000db5565b82525050565b620011fe8162000d5a565b82525050565b60006040820190506200121b6000830185620011e2565b6200122a6020830184620011f3565b9392505050565b7f596f752063616e6e6f742072656a6563742074686973207461736b0000000000600082015250565b600062001269601b83620010ee565b9150620012768262001231565b602082019050919050565b600060208201905081810360008301526200129c816200125a565b9050919050565b7f546865207461736b206973206e6f7420636f6d706c6574656420796574000000600082015250565b6000620012db601d83620010ee565b9150620012e882620012a3565b602082019050919050565b600060208201905081810360008301526200130e81620012cc565b9050919050565b7f596f752063616e6e6f7420617070726f76652074686973207461736b00000000600082015250565b60006200134d601c83620010ee565b91506200135a8262001315565b602082019050919050565b6000602082019050818103600083015262001380816200133e565b9050919050565b7f4e487b7100000000000000000000000000000000000000000000000000000000600052603260045260246000fd5b7f4e487b7100000000000000000000000000000000000000000000000000000000600052601160045260246000fd5b6000620013f28262000d5a565b9150620013ff8362000d5a565b92508282039050818111156200141a5762001419620013b6565b5b92915050565b7f4e487b7100000000000000000000000000000000000000000000000000000000600052603160045260246000fd5b60006200145c8262000d5a565b91507fffffffffffffffffffffffffffffffffffffffffffffffffffffffffffffffff8203620014915762001490620013b6565b5b60018201905091905056fe60806040526000600360146101000a81548160ff0219169083151502179055503480156200002c57600080fd5b506040516200218f3803806200218f8339818101604052810190620000529190620004d5565b620000847f408a36151f841709116a4e8aca4e0202874f7f54687dcb863b1ea4672dc9d8cf836200012160201b60201c565b82600190816200009591906200079b565b5081600260006101000a81548173ffffffffffffffffffffffffffffffffffffffff021916908373ffffffffffffffffffffffffffffffffffffffff16021790555080600460006101000a81548173ffffffffffffffffffffffffffffffffffffffff021916908373ffffffffffffffffffffffffffffffffffffffff16021790555050505062000882565b6200013382826200021260201b60201c565b6200020e57600160008084815260200190815260200160002060000160008373ffffffffffffffffffffffffffffffffffffffff1673ffffffffffffffffffffffffffffffffffffffff16815260200190815260200160002060006101000a81548160ff021916908315150217905550620001b36200027c60201b60201c565b73ffffffffffffffffffffffffffffffffffffffff168173ffffffffffffffffffffffffffffffffffffffff16837f2f8788117e7eff1d82e926ec794901d17c78024a50270940304540a733656f0d60405160405180910390a45b5050565b600080600084815260200190815260200160002060000160008373ffffffffffffffffffffffffffffffffffffffff1673ffffffffffffffffffffffffffffffffffffffff16815260200190815260200160002060009054906101000a900460ff16905092915050565b600033905090565b6000604051905090565b600080fd5b600080fd5b600080fd5b600080fd5b6000601f19601f8301169050919050565b7f4e487b7100000000000000000000000000000000000000000000000000000000600052604160045260246000fd5b620002ed82620002a2565b810181811067ffffffffffffffff821117156200030f576200030e620002b3565b5b80604052505050565b60006200032462000284565b9050620003328282620002e2565b919050565b600067ffffffffffffffff821115620003555762000354620002b3565b5b6200036082620002a2565b9050602081019050919050565b60005b838110156200038d57808201518184015260208101905062000370565b60008484015250505050565b6000620003b0620003aa8462000337565b62000318565b905082815260208101848484011115620003cf57620003ce6200029d565b5b620003dc8482856200036d565b509392505050565b600082601f830112620003fc57620003fb62000298565b5b81516200040e84826020860162000399565b91505092915050565b600073ffffffffffffffffffffffffffffffffffffffff82169050919050565b6000620004448262000417565b9050919050565b6000620004588262000437565b9050919050565b6200046a816200044b565b81146200047657600080fd5b50565b6000815190506200048a816200045f565b92915050565b60006200049d8262000437565b9050919050565b620004af8162000490565b8114620004bb57600080fd5b50565b600081519050620004cf81620004a4565b92915050565b600080600060608486031215620004f157620004f06200028e565b5b600084015167ffffffffffffffff81111562000512576200051162000293565b5b6200052086828701620003e4565b9350506020620005338682870162000479565b92505060406200054686828701620004be565b9150509250925092565b600081519050919050565b7f4e487b7100000000000000000000000000000000000000000000000000000000600052602260045260246000fd5b60006002820490506001821680620005a357607f821691505b602082108103620005b957620005b86200055b565b5b50919050565b60008190508160005260206000209050919050565b60006020601f8301049050919050565b600082821b905092915050565b600060088302620006237fffffffffffffffffffffffffffffffffffffffffffffffffffffffffffffffff82620005e4565b6200062f8683620005e4565b95508019841693508086168417925050509392505050565b6000819050919050565b6000819050919050565b60006200067c62000676620006708462000647565b62000651565b62000647565b9050919050565b6000819050919050565b62000698836200065b565b620006b0620006a78262000683565b848454620005f1565b825550505050565b600090565b620006c7620006b8565b620006d48184846200068d565b505050565b5b81811015620006fc57620006f0600082620006bd565b600181019050620006da565b5050565b601f8211156200074b576200071581620005bf565b6200072084620005d4565b8101602085101562000730578190505b620007486200073f85620005d4565b830182620006d9565b50505b505050565b600082821c905092915050565b6000620007706000198460080262000750565b1980831691505092915050565b60006200078b83836200075d565b9150826002028217905092915050565b620007a68262000550565b67ffffffffffffffff811115620007c257620007c1620002b3565b5b620007ce82546200058a565b620007db82828562000700565b600060209050601f831160018114620008135760008415620007fe578287015190505b6200080a85826200077d565b8655506200087a565b601f1984166200082386620005bf565b60005b828110156200084d5784890151825560018201915060208501945060208101905062000826565b868310156200086d578489015162000869601f8916826200075d565b8355505b6001600288020188555050505b505050505050565b6118fd80620008926000396000f3fe608060405234801561001057600080fd5b50600436106101005760003560e01c806343bb8db511610097578063a217fddf11610066578063a217fddf14610263578063b4906a2d14610281578063cd4467351461029f578063d547741f146102bd57610100565b806343bb8db5146102015780634dc415de1461020b57806369940d791461021557806391d148541461023357610100565b8063248a9ca3116100d3578063248a9ca31461017b5780632f2ff15d146101ab57806336568abe146101c75780634245962b146101e357610100565b806301ffc9a71461010557806309a69f571461013557806312424e3f146101535780631a0925411461015d575b600080fd5b61011f600480360381019061011a9190611064565b6102d9565b60405161012c91906110ac565b60405180910390f35b61013d610353565b60405161014a91906110e0565b60405180910390f35b61015b6103f6565b005b610165610650565b604051610172919061118b565b60405180910390f35b610195600480360381019061019091906111e3565b6106e2565b6040516101a2919061121f565b60405180910390f35b6101c560048036038101906101c09190611298565b610701565b005b6101e160048036038101906101dc9190611298565b610722565b005b6101eb6107a5565b6040516101f8919061121f565b60405180910390f35b6102096107c9565b005b61021361092a565b005b61021d6109d5565b60405161022a91906112e7565b60405180910390f35b61024d60048036038101906102489190611298565b6109ff565b60405161025a91906110ac565b60405180910390f35b61026b610a69565b604051610278919061121f565b60405180910390f35b610289610a70565b60405161029691906110ac565b60405180910390f35b6102a7610a87565b6040516102b491906112e7565b60405180910390f35b6102d760048036038101906102d29190611298565b610ab1565b005b60007f7965db0b000000000000000000000000000000000000000000000000000000007bffffffffffffffffffffffffffffffffffffffffffffffffffffffff1916827bffffffffffffffffffffffffffffffffffffffffffffffffffffffff1916148061034c575061034b82610ad2565b5b9050919050565b6000600460009054906101000a900473ffffffffffffffffffffffffffffffffffffffff1673ffffffffffffffffffffffffffffffffffffffff166370a08231306040518263ffffffff1660e01b81526004016103b091906112e7565b602060405180830381865afa1580156103cd573d6000803e3d6000fd5b505050506040513d601f19601f820116820180604052508101906103f1919061132e565b905090565b7f408a36151f841709116a4e8aca4e0202874f7f54687dcb863b1ea4672dc9d8cf61042081610b3c565b60001515600360149054906101000a900460ff16151514610476576040517f08c379a000000000000000000000000000000000000000000000000000000000815260040161046d906113a7565b60405180910390fd5b600073ffffffffffffffffffffffffffffffffffffffff16600360009054906101000a900473ffffffffffffffffffffffffffffffffffffffff1673ffffffffffffffffffffffffffffffffffffffff1603610507576040517f08c379a00000000000000000000000000000000000000000000000000000000081526004016104fe90611413565b60405180910390fd5b6000610511610353565b9050600460009054906101000a900473ffffffffffffffffffffffffffffffffffffffff1673ffffffffffffffffffffffffffffffffffffffff1663a9059cbb600360009054906101000a900473ffffffffffffffffffffffffffffffffffffffff16836040518363ffffffff1660e01b8152600401610592929190611433565b6020604051808303816000875af11580156105b1573d6000803e3d6000fd5b505050506040513d601f19601f820116820180604052508101906105d59190611488565b506001600360146101000a81548160ff0219169083151502179055507ff13bfe0b6ec5df39265dccb0a01a09aa4162489c7a083dc6670bde0255d02ca7600360009054906101000a900473ffffffffffffffffffffffffffffffffffffffff1682604051610644929190611433565b60405180910390a15050565b60606001805461065f906114e4565b80601f016020809104026020016040519081016040528092919081815260200182805461068b906114e4565b80156106d85780601f106106ad576101008083540402835291602001916106d8565b820191906000526020600020905b8154815290600101906020018083116106bb57829003601f168201915b5050505050905090565b6000806000838152602001908152602001600020600101549050919050565b61070a826106e2565b61071381610b3c565b61071d8383610b50565b505050565b61072a610c30565b73ffffffffffffffffffffffffffffffffffffffff168173ffffffffffffffffffffffffffffffffffffffff1614610797576040517f08c379a000000000000000000000000000000000000000000000000000000000815260040161078e90611587565b60405180910390fd5b6107a18282610c38565b5050565b7f408a36151f841709116a4e8aca4e0202874f7f54687dcb863b1ea4672dc9d8cf81565b600073ffffffffffffffffffffffffffffffffffffffff16600360009054906101000a900473ffffffffffffffffffffffffffffffffffffffff1673ffffffffffffffffffffffffffffffffffffffff161461085a576040517f08c379a0000000000000000000000000000000000000000000000000000000008152600401610851906113a7565b60405180910390fd5b33600360006101000a81548173ffffffffffffffffffffffffffffffffffffffff021916908373ffffffffffffffffffffffffffffffffffffffff160217905550600260009054906101000a900473ffffffffffffffffffffffffffffffffffffffff1673ffffffffffffffffffffffffffffffffffffffff166311a8f8fb306040518263ffffffff1660e01b81526004016108f69190611606565b600060405180830381600087803b15801561091057600080fd5b505af1158015610924573d6000803e3d6000fd5b50505050565b7f408a36151f841709116a4e8aca4e0202874f7f54687dcb863b1ea4672dc9d8cf61095481610b3c565b7faf77f8960cf590e245ec8b6d41c193a5dcacad8986ae4eb57ac9e5be7b6af031600360009054906101000a900473ffffffffffffffffffffffffffffffffffffffff166040516109a591906112e7565b60405180910390a1600360006101000a81549073ffffffffffffffffffffffffffffffffffffffff021916905550565b6000600460009054906101000a900473ffffffffffffffffffffffffffffffffffffffff16905090565b600080600084815260200190815260200160002060000160008373ffffffffffffffffffffffffffffffffffffffff1673ffffffffffffffffffffffffffffffffffffffff16815260200190815260200160002060009054906101000a900460ff16905092915050565b6000801b81565b6000600360149054906101000a900460ff16905090565b6000600360009054906101000a900473ffffffffffffffffffffffffffffffffffffffff16905090565b610aba826106e2565b610ac381610b3c565b610acd8383610c38565b505050565b60007f01ffc9a7000000000000000000000000000000000000000000000000000000007bffffffffffffffffffffffffffffffffffffffffffffffffffffffff1916827bffffffffffffffffffffffffffffffffffffffffffffffffffffffff1916149050919050565b610b4d81610b48610c30565b610d19565b50565b610b5a82826109ff565b610c2c57600160008084815260200190815260200160002060000160008373ffffffffffffffffffffffffffffffffffffffff1673ffffffffffffffffffffffffffffffffffffffff16815260200190815260200160002060006101000a81548160ff021916908315150217905550610bd1610c30565b73ffffffffffffffffffffffffffffffffffffffff168173ffffffffffffffffffffffffffffffffffffffff16837f2f8788117e7eff1d82e926ec794901d17c78024a50270940304540a733656f0d60405160405180910390a45b5050565b600033905090565b610c4282826109ff565b15610d1557600080600084815260200190815260200160002060000160008373ffffffffffffffffffffffffffffffffffffffff1673ffffffffffffffffffffffffffffffffffffffff16815260200190815260200160002060006101000a81548160ff021916908315150217905550610cba610c30565b73ffffffffffffffffffffffffffffffffffffffff168173ffffffffffffffffffffffffffffffffffffffff16837ff6391f5c32d9c69d2a47ea670b442974b53935d1edc7fd64eb21e047a839171b60405160405180910390a45b5050565b610d2382826109ff565b610d9a57610d3081610d9e565b610d3e8360001c6020610dcb565b604051602001610d4f9291906116f5565b6040516020818303038152906040526040517f08c379a0000000000000000000000000000000000000000000000000000000008152600401610d91919061118b565b60405180910390fd5b5050565b6060610dc48273ffffffffffffffffffffffffffffffffffffffff16601460ff16610dcb565b9050919050565b606060006002836002610dde919061175e565b610de891906117a0565b67ffffffffffffffff811115610e0157610e006117d4565b5b6040519080825280601f01601f191660200182016040528015610e335781602001600182028036833780820191505090505b5090507f300000000000000000000000000000000000000000000000000000000000000081600081518110610e6b57610e6a611803565b5b60200101907effffffffffffffffffffffffffffffffffffffffffffffffffffffffffffff1916908160001a9053507f780000000000000000000000000000000000000000000000000000000000000081600181518110610ecf57610ece611803565b5b60200101907effffffffffffffffffffffffffffffffffffffffffffffffffffffffffffff1916908160001a90535060006001846002610f0f919061175e565b610f1991906117a0565b90505b6001811115610fb9577f3031323334353637383961626364656600000000000000000000000000000000600f861660108110610f5b57610f5a611803565b5b1a60f81b828281518110610f7257610f71611803565b5b60200101907effffffffffffffffffffffffffffffffffffffffffffffffffffffffffffff1916908160001a905350600485901c945080610fb290611832565b9050610f1c565b5060008414610ffd576040517f08c379a0000000000000000000000000000000000000000000000000000000008152600401610ff4906118a7565b60405180910390fd5b8091505092915050565b600080fd5b60007fffffffff0000000000000000000000000000000000000000000000000000000082169050919050565b6110418161100c565b811461104c57600080fd5b50565b60008135905061105e81611038565b92915050565b60006020828403121561107a57611079611007565b5b60006110888482850161104f565b91505092915050565b60008115159050919050565b6110a681611091565b82525050565b60006020820190506110c1600083018461109d565b92915050565b6000819050919050565b6110da816110c7565b82525050565b60006020820190506110f560008301846110d1565b92915050565b600081519050919050565b600082825260208201905092915050565b60005b8381101561113557808201518184015260208101905061111a565b60008484015250505050565b6000601f19601f8301169050919050565b600061115d826110fb565b6111678185611106565b9350611177818560208601611117565b61118081611141565b840191505092915050565b600060208201905081810360008301526111a58184611152565b905092915050565b6000819050919050565b6111c0816111ad565b81146111cb57600080fd5b50565b6000813590506111dd816111b7565b92915050565b6000602082840312156111f9576111f8611007565b5b6000611207848285016111ce565b91505092915050565b611219816111ad565b82525050565b60006020820190506112346000830184611210565b92915050565b600073ffffffffffffffffffffffffffffffffffffffff82169050919050565b60006112658261123a565b9050919050565b6112758161125a565b811461128057600080fd5b50565b6000813590506112928161126c565b92915050565b600080604083850312156112af576112ae611007565b5b60006112bd858286016111ce565b92505060206112ce85828601611283565b9150509250929050565b6112e18161125a565b82525050565b60006020820190506112fc60008301846112d8565b92915050565b61130b816110c7565b811461131657600080fd5b50565b60008151905061132881611302565b92915050565b60006020828403121561134457611343611007565b5b600061135284828501611319565b91505092915050565b7f546865207461736b20697320616c726561647920636f6d706c65746564000000600082015250565b6000611391601d83611106565b915061139c8261135b565b602082019050919050565b600060208201905081810360008301526113c081611384565b9050919050565b7f546865207061796565206164647265737320697320656d707479000000000000600082015250565b60006113fd601a83611106565b9150611408826113c7565b602082019050919050565b6000602082019050818103600083015261142c816113f0565b9050919050565b600060408201905061144860008301856112d8565b61145560208301846110d1565b9392505050565b61146581611091565b811461147057600080fd5b50565b6000815190506114828161145c565b92915050565b60006020828403121561149e5761149d611007565b5b60006114ac84828501611473565b91505092915050565b7f4e487b7100000000000000000000000000000000000000000000000000000000600052602260045260246000fd5b600060028204905060018216806114fc57607f821691505b60208210810361150f5761150e6114b5565b5b50919050565b7f416363657373436f6e74726f6c3a2063616e206f6e6c792072656e6f756e636560008201527f20726f6c657320666f722073656c660000000000000000000000000000000000602082015250565b6000611571602f83611106565b915061157c82611515565b604082019050919050565b600060208201905081810360008301526115a081611564565b9050919050565b6000819050919050565b60006115cc6115c76115c28461123a565b6115a7565b61123a565b9050919050565b60006115de826115b1565b9050919050565b60006115f0826115d3565b9050919050565b611600816115e5565b82525050565b600060208201905061161b60008301846115f7565b92915050565b600081905092915050565b7f416363657373436f6e74726f6c3a206163636f756e7420000000000000000000600082015250565b6000611662601783611621565b915061166d8261162c565b601782019050919050565b6000611683826110fb565b61168d8185611621565b935061169d818560208601611117565b80840191505092915050565b7f206973206d697373696e6720726f6c6520000000000000000000000000000000600082015250565b60006116df601183611621565b91506116ea826116a9565b601182019050919050565b600061170082611655565b915061170c8285611678565b9150611717826116d2565b91506117238284611678565b91508190509392505050565b7f4e487b7100000000000000000000000000000000000000000000000000000000600052601160045260246000fd5b6000611769826110c7565b9150611774836110c7565b9250828202611782816110c7565b915082820484148315176117995761179861172f565b5b5092915050565b60006117ab826110c7565b91506117b6836110c7565b92508282019050808211156117ce576117cd61172f565b5b92915050565b7f4e487b7100000000000000000000000000000000000000000000000000000000600052604160045260246000fd5b7f4e487b7100000000000000000000000000000000000000000000000000000000600052603260045260246000fd5b600061183d826110c7565b9150600082036118505761184f61172f565b5b600182039050919050565b7f537472696e67733a20686578206c656e67746820696e73756666696369656e74600082015250565b6000611891602083611106565b915061189c8261185b565b602082019050919050565b600060208201905081810360008301526118c081611884565b905091905056fea2646970667358221220e45760e67b039bf37cc043b4e712f5c2893289f14301b3bdb5a32042796d4c1764736f6c63430008120033a2646970667358221220b8dcbe1a6ed9f77b4191e4241b7462b64ff3e308b24885a21219cff94f9e967864736f6c63430008120033",
  "linkReferences": {},
  "deployedLinkReferences": {}
}