{
  "_format": "hh-sol-artifact-1",
  "contractName": "RewardsTask",
  "sourceName": "contracts/RewardsTask.sol",
  "abi": [
    {
      "inputs": [
        {
          "internalType": "string",
          "name": "_description",
          "type": "string"
        },
        {
          "internalType": "contract RewardsManagement",
          "name": "_mgt",
          "type": "address"
        },
        {
          "internalType": "contract ERC20",
          "name": "_rewardToken",
          "type": "address"
        }
      ],
      "stateMutability": "nonpayable",
      "type": "constructor"
    },
    {
      "anonymous": false,
      "inputs": [
        {
          "indexed": false,
          "internalType": "address",
          "name": "payee",
          "type": "address"
        },
        {
          "indexed": false,
          "internalType": "uint256",
          "name": "reward",
          "type": "uint256"
        }
      ],
      "name": "Approved",
      "type": "event"
    },
    {
      "anonymous": false,
      "inputs": [
        {
          "indexed": false,
          "internalType": "address",
          "name": "payee",
          "type": "address"
        }
      ],
      "name": "Rejected",
      "type": "event"
    },
    {
      "anonymous": false,
      "inputs": [
        {
          "indexed": true,
          "internalType": "bytes32",
          "name": "role",
          "type": "bytes32"
        },
        {
          "indexed": true,
          "internalType": "bytes32",
          "name": "previousAdminRole",
          "type": "bytes32"
        },
        {
          "indexed": true,
          "internalType": "bytes32",
          "name": "newAdminRole",
          "type": "bytes32"
        }
      ],
      "name": "RoleAdminChanged",
      "type": "event"
    },
    {
      "anonymous": false,
      "inputs": [
        {
          "indexed": true,
          "internalType": "bytes32",
          "name": "role",
          "type": "bytes32"
        },
        {
          "indexed": true,
          "internalType": "address",
          "name": "account",
          "type": "address"
        },
        {
          "indexed": true,
          "internalType": "address",
          "name": "sender",
          "type": "address"
        }
      ],
      "name": "RoleGranted",
      "type": "event"
    },
    {
      "anonymous": false,
      "inputs": [
        {
          "indexed": true,
          "internalType": "bytes32",
          "name": "role",
          "type": "bytes32"
        },
        {
          "indexed": true,
          "internalType": "address",
          "name": "account",
          "type": "address"
        },
        {
          "indexed": true,
          "internalType": "address",
          "name": "sender",
          "type": "address"
        }
      ],
      "name": "RoleRevoked",
      "type": "event"
    },
    {
      "inputs": [],
      "name": "APPROVER_ROLE",
      "outputs": [
        {
          "internalType": "bytes32",
          "name": "",
          "type": "bytes32"
        }
      ],
      "stateMutability": "view",
      "type": "function"
    },
    {
      "inputs": [],
      "name": "DEFAULT_ADMIN_ROLE",
      "outputs": [
        {
          "internalType": "bytes32",
          "name": "",
          "type": "bytes32"
        }
      ],
      "stateMutability": "view",
      "type": "function"
    },
    {
      "inputs": [],
      "name": "approve",
      "outputs": [],
      "stateMutability": "nonpayable",
      "type": "function"
    },
    {
      "inputs": [],
      "name": "completeTask",
      "outputs": [],
      "stateMutability": "nonpayable",
      "type": "function"
    },
    {
      "inputs": [],
      "name": "getDescription",
      "outputs": [
        {
          "internalType": "string",
          "name": "",
          "type": "string"
        }
      ],
      "stateMutability": "view",
      "type": "function"
    },
    {
      "inputs": [],
      "name": "getIsCompleted",
      "outputs": [
        {
          "internalType": "bool",
          "name": "",
          "type": "bool"
        }
      ],
      "stateMutability": "view",
      "type": "function"
    },
    {
      "inputs": [],
      "name": "getPayee",
      "outputs": [
        {
          "internalType": "address",
          "name": "",
          "type": "address"
        }
      ],
      "stateMutability": "view",
      "type": "function"
    },
    {
      "inputs": [],
      "name": "getRewardAmount",
      "outputs": [
        {
          "internalType": "uint256",
          "name": "",
          "type": "uint256"
        }
      ],
      "stateMutability": "view",
      "type": "function"
    },
    {
      "inputs": [],
      "name": "getRewardToken",
      "outputs": [
        {
          "internalType": "address",
          "name": "",
          "type": "address"
        }
      ],
      "stateMutability": "view",
      "type": "function"
    },
    {
      "inputs": [
        {
          "internalType": "bytes32",
          "name": "role",
          "type": "bytes32"
        }
      ],
      "name": "getRoleAdmin",
      "outputs": [
        {
          "internalType": "bytes32",
          "name": "",
          "type": "bytes32"
        }
      ],
      "stateMutability": "view",
      "type": "function"
    },
    {
      "inputs": [
        {
          "internalType": "bytes32",
          "name": "role",
          "type": "bytes32"
        },
        {
          "internalType": "address",
          "name": "account",
          "type": "address"
        }
      ],
      "name": "grantRole",
      "outputs": [],
      "stateMutability": "nonpayable",
      "type": "function"
    },
    {
      "inputs": [
        {
          "internalType": "bytes32",
          "name": "role",
          "type": "bytes32"
        },
        {
          "internalType": "address",
          "name": "account",
          "type": "address"
        }
      ],
      "name": "hasRole",
      "outputs": [
        {
          "internalType": "bool",
          "name": "",
          "type": "bool"
        }
      ],
      "stateMutability": "view",
      "type": "function"
    },
    {
      "inputs": [],
      "name": "reject",
      "outputs": [],
      "stateMutability": "nonpayable",
      "type": "function"
    },
    {
      "inputs": [
        {
          "internalType": "bytes32",
          "name": "role",
          "type": "bytes32"
        },
        {
          "internalType": "address",
          "name": "account",
          "type": "address"
        }
      ],
      "name": "renounceRole",
      "outputs": [],
      "stateMutability": "nonpayable",
      "type": "function"
    },
    {
      "inputs": [
        {
          "internalType": "bytes32",
          "name": "role",
          "type": "bytes32"
        },
        {
          "internalType": "address",
          "name": "account",
          "type": "address"
        }
      ],
      "name": "revokeRole",
      "outputs": [],
      "stateMutability": "nonpayable",
      "type": "function"
    },
    {
      "inputs": [
        {
          "internalType": "bytes4",
          "name": "interfaceId",
          "type": "bytes4"
        }
      ],
      "name": "supportsInterface",
      "outputs": [
        {
          "internalType": "bool",
          "name": "",
          "type": "bool"
        }
      ],
      "stateMutability": "view",
      "type": "function"
    }
  ],
  "bytecode": "0x60806040526000600360146101000a81548160ff0219169083151502179055503480156200002c57600080fd5b50604051620021ac380380620021ac8339818101604052810190620000529190620004d5565b620000847f408a36151f841709116a4e8aca4e0202874f7f54687dcb863b1ea4672dc9d8cf836200012160201b60201c565b82600190816200009591906200079b565b5081600260006101000a81548173ffffffffffffffffffffffffffffffffffffffff021916908373ffffffffffffffffffffffffffffffffffffffff16021790555080600460006101000a81548173ffffffffffffffffffffffffffffffffffffffff021916908373ffffffffffffffffffffffffffffffffffffffff16021790555050505062000882565b6200013382826200021260201b60201c565b6200020e57600160008084815260200190815260200160002060000160008373ffffffffffffffffffffffffffffffffffffffff1673ffffffffffffffffffffffffffffffffffffffff16815260200190815260200160002060006101000a81548160ff021916908315150217905550620001b36200027c60201b60201c565b73ffffffffffffffffffffffffffffffffffffffff168173ffffffffffffffffffffffffffffffffffffffff16837f2f8788117e7eff1d82e926ec794901d17c78024a50270940304540a733656f0d60405160405180910390a45b5050565b600080600084815260200190815260200160002060000160008373ffffffffffffffffffffffffffffffffffffffff1673ffffffffffffffffffffffffffffffffffffffff16815260200190815260200160002060009054906101000a900460ff16905092915050565b600033905090565b6000604051905090565b600080fd5b600080fd5b600080fd5b600080fd5b6000601f19601f8301169050919050565b7f4e487b7100000000000000000000000000000000000000000000000000000000600052604160045260246000fd5b620002ed82620002a2565b810181811067ffffffffffffffff821117156200030f576200030e620002b3565b5b80604052505050565b60006200032462000284565b9050620003328282620002e2565b919050565b600067ffffffffffffffff821115620003555762000354620002b3565b5b6200036082620002a2565b9050602081019050919050565b60005b838110156200038d57808201518184015260208101905062000370565b60008484015250505050565b6000620003b0620003aa8462000337565b62000318565b905082815260208101848484011115620003cf57620003ce6200029d565b5b620003dc8482856200036d565b509392505050565b600082601f830112620003fc57620003fb62000298565b5b81516200040e84826020860162000399565b91505092915050565b600073ffffffffffffffffffffffffffffffffffffffff82169050919050565b6000620004448262000417565b9050919050565b6000620004588262000437565b9050919050565b6200046a816200044b565b81146200047657600080fd5b50565b6000815190506200048a816200045f565b92915050565b60006200049d8262000437565b9050919050565b620004af8162000490565b8114620004bb57600080fd5b50565b600081519050620004cf81620004a4565b92915050565b600080600060608486031215620004f157620004f06200028e565b5b600084015167ffffffffffffffff81111562000512576200051162000293565b5b6200052086828701620003e4565b9350506020620005338682870162000479565b92505060406200054686828701620004be565b9150509250925092565b600081519050919050565b7f4e487b7100000000000000000000000000000000000000000000000000000000600052602260045260246000fd5b60006002820490506001821680620005a357607f821691505b602082108103620005b957620005b86200055b565b5b50919050565b60008190508160005260206000209050919050565b60006020601f8301049050919050565b600082821b905092915050565b600060088302620006237fffffffffffffffffffffffffffffffffffffffffffffffffffffffffffffffff82620005e4565b6200062f8683620005e4565b95508019841693508086168417925050509392505050565b6000819050919050565b6000819050919050565b60006200067c62000676620006708462000647565b62000651565b62000647565b9050919050565b6000819050919050565b62000698836200065b565b620006b0620006a78262000683565b848454620005f1565b825550505050565b600090565b620006c7620006b8565b620006d48184846200068d565b505050565b5b81811015620006fc57620006f0600082620006bd565b600181019050620006da565b5050565b601f8211156200074b576200071581620005bf565b6200072084620005d4565b8101602085101562000730578190505b620007486200073f85620005d4565b830182620006d9565b50505b505050565b600082821c905092915050565b6000620007706000198460080262000750565b1980831691505092915050565b60006200078b83836200075d565b9150826002028217905092915050565b620007a68262000550565b67ffffffffffffffff811115620007c257620007c1620002b3565b5b620007ce82546200058a565b620007db82828562000700565b600060209050601f831160018114620008135760008415620007fe578287015190505b6200080a85826200077d565b8655506200087a565b601f1984166200082386620005bf565b60005b828110156200084d5784890151825560018201915060208501945060208101905062000826565b868310156200086d578489015162000869601f8916826200075d565b8355505b6001600288020188555050505b505050505050565b61191a80620008926000396000f3fe608060405234801561001057600080fd5b50600436106101005760003560e01c806343bb8db511610097578063a217fddf11610066578063a217fddf14610263578063b4906a2d14610281578063cd4467351461029f578063d547741f146102bd57610100565b806343bb8db5146102015780634dc415de1461020b57806369940d791461021557806391d148541461023357610100565b8063248a9ca3116100d3578063248a9ca31461017b5780632f2ff15d146101ab57806336568abe146101c75780634245962b146101e357610100565b806301ffc9a71461010557806309a69f571461013557806312424e3f146101535780631a0925411461015d575b600080fd5b61011f600480360381019061011a9190611081565b6102d9565b60405161012c91906110c9565b60405180910390f35b61013d610353565b60405161014a91906110fd565b60405180910390f35b61015b6103f6565b005b610165610650565b60405161017291906111a8565b60405180910390f35b61019560048036038101906101909190611200565b6106e2565b6040516101a2919061123c565b60405180910390f35b6101c560048036038101906101c091906112b5565b610701565b005b6101e160048036038101906101dc91906112b5565b610722565b005b6101eb6107a5565b6040516101f8919061123c565b60405180910390f35b6102096107c9565b005b61021361092a565b005b61021d6109f2565b60405161022a9190611304565b60405180910390f35b61024d600480360381019061024891906112b5565b610a1c565b60405161025a91906110c9565b60405180910390f35b61026b610a86565b604051610278919061123c565b60405180910390f35b610289610a8d565b60405161029691906110c9565b60405180910390f35b6102a7610aa4565b6040516102b49190611304565b60405180910390f35b6102d760048036038101906102d291906112b5565b610ace565b005b60007f7965db0b000000000000000000000000000000000000000000000000000000007bffffffffffffffffffffffffffffffffffffffffffffffffffffffff1916827bffffffffffffffffffffffffffffffffffffffffffffffffffffffff1916148061034c575061034b82610aef565b5b9050919050565b6000600460009054906101000a900473ffffffffffffffffffffffffffffffffffffffff1673ffffffffffffffffffffffffffffffffffffffff166370a08231306040518263ffffffff1660e01b81526004016103b09190611304565b602060405180830381865afa1580156103cd573d6000803e3d6000fd5b505050506040513d601f19601f820116820180604052508101906103f1919061134b565b905090565b7f408a36151f841709116a4e8aca4e0202874f7f54687dcb863b1ea4672dc9d8cf61042081610b59565b60001515600360149054906101000a900460ff16151514610476576040517f08c379a000000000000000000000000000000000000000000000000000000000815260040161046d906113c4565b60405180910390fd5b600073ffffffffffffffffffffffffffffffffffffffff16600360009054906101000a900473ffffffffffffffffffffffffffffffffffffffff1673ffffffffffffffffffffffffffffffffffffffff1603610507576040517f08c379a00000000000000000000000000000000000000000000000000000000081526004016104fe90611430565b60405180910390fd5b6000610511610353565b9050600460009054906101000a900473ffffffffffffffffffffffffffffffffffffffff1673ffffffffffffffffffffffffffffffffffffffff1663a9059cbb600360009054906101000a900473ffffffffffffffffffffffffffffffffffffffff16836040518363ffffffff1660e01b8152600401610592929190611450565b6020604051808303816000875af11580156105b1573d6000803e3d6000fd5b505050506040513d601f19601f820116820180604052508101906105d591906114a5565b506001600360146101000a81548160ff0219169083151502179055507ff13bfe0b6ec5df39265dccb0a01a09aa4162489c7a083dc6670bde0255d02ca7600360009054906101000a900473ffffffffffffffffffffffffffffffffffffffff1682604051610644929190611450565b60405180910390a15050565b60606001805461065f90611501565b80601f016020809104026020016040519081016040528092919081815260200182805461068b90611501565b80156106d85780601f106106ad576101008083540402835291602001916106d8565b820191906000526020600020905b8154815290600101906020018083116106bb57829003601f168201915b5050505050905090565b6000806000838152602001908152602001600020600101549050919050565b61070a826106e2565b61071381610b59565b61071d8383610b6d565b505050565b61072a610c4d565b73ffffffffffffffffffffffffffffffffffffffff168173ffffffffffffffffffffffffffffffffffffffff1614610797576040517f08c379a000000000000000000000000000000000000000000000000000000000815260040161078e906115a4565b60405180910390fd5b6107a18282610c55565b5050565b7f408a36151f841709116a4e8aca4e0202874f7f54687dcb863b1ea4672dc9d8cf81565b600073ffffffffffffffffffffffffffffffffffffffff16600360009054906101000a900473ffffffffffffffffffffffffffffffffffffffff1673ffffffffffffffffffffffffffffffffffffffff161461085a576040517f08c379a0000000000000000000000000000000000000000000000000000000008152600401610851906113c4565b60405180910390fd5b33600360006101000a81548173ffffffffffffffffffffffffffffffffffffffff021916908373ffffffffffffffffffffffffffffffffffffffff160217905550600260009054906101000a900473ffffffffffffffffffffffffffffffffffffffff1673ffffffffffffffffffffffffffffffffffffffff166311a8f8fb306040518263ffffffff1660e01b81526004016108f69190611623565b600060405180830381600087803b15801561091057600080fd5b505af1158015610924573d6000803e3d6000fd5b50505050565b7f408a36151f841709116a4e8aca4e0202874f7f54687dcb863b1ea4672dc9d8cf61095481610b59565b7faf77f8960cf590e245ec8b6d41c193a5dcacad8986ae4eb57ac9e5be7b6af031600360009054906101000a900473ffffffffffffffffffffffffffffffffffffffff166040516109a59190611304565b60405180910390a16000600360006101000a81548173ffffffffffffffffffffffffffffffffffffffff021916908373ffffffffffffffffffffffffffffffffffffffff16021790555050565b6000600460009054906101000a900473ffffffffffffffffffffffffffffffffffffffff16905090565b600080600084815260200190815260200160002060000160008373ffffffffffffffffffffffffffffffffffffffff1673ffffffffffffffffffffffffffffffffffffffff16815260200190815260200160002060009054906101000a900460ff16905092915050565b6000801b81565b6000600360149054906101000a900460ff16905090565b6000600360009054906101000a900473ffffffffffffffffffffffffffffffffffffffff16905090565b610ad7826106e2565b610ae081610b59565b610aea8383610c55565b505050565b60007f01ffc9a7000000000000000000000000000000000000000000000000000000007bffffffffffffffffffffffffffffffffffffffffffffffffffffffff1916827bffffffffffffffffffffffffffffffffffffffffffffffffffffffff1916149050919050565b610b6a81610b65610c4d565b610d36565b50565b610b778282610a1c565b610c4957600160008084815260200190815260200160002060000160008373ffffffffffffffffffffffffffffffffffffffff1673ffffffffffffffffffffffffffffffffffffffff16815260200190815260200160002060006101000a81548160ff021916908315150217905550610bee610c4d565b73ffffffffffffffffffffffffffffffffffffffff168173ffffffffffffffffffffffffffffffffffffffff16837f2f8788117e7eff1d82e926ec794901d17c78024a50270940304540a733656f0d60405160405180910390a45b5050565b600033905090565b610c5f8282610a1c565b15610d3257600080600084815260200190815260200160002060000160008373ffffffffffffffffffffffffffffffffffffffff1673ffffffffffffffffffffffffffffffffffffffff16815260200190815260200160002060006101000a81548160ff021916908315150217905550610cd7610c4d565b73ffffffffffffffffffffffffffffffffffffffff168173ffffffffffffffffffffffffffffffffffffffff16837ff6391f5c32d9c69d2a47ea670b442974b53935d1edc7fd64eb21e047a839171b60405160405180910390a45b5050565b610d408282610a1c565b610db757610d4d81610dbb565b610d5b8360001c6020610de8565b604051602001610d6c929190611712565b6040516020818303038152906040526040517f08c379a0000000000000000000000000000000000000000000000000000000008152600401610dae91906111a8565b60405180910390fd5b5050565b6060610de18273ffffffffffffffffffffffffffffffffffffffff16601460ff16610de8565b9050919050565b606060006002836002610dfb919061177b565b610e0591906117bd565b67ffffffffffffffff811115610e1e57610e1d6117f1565b5b6040519080825280601f01601f191660200182016040528015610e505781602001600182028036833780820191505090505b5090507f300000000000000000000000000000000000000000000000000000000000000081600081518110610e8857610e87611820565b5b60200101907effffffffffffffffffffffffffffffffffffffffffffffffffffffffffffff1916908160001a9053507f780000000000000000000000000000000000000000000000000000000000000081600181518110610eec57610eeb611820565b5b60200101907effffffffffffffffffffffffffffffffffffffffffffffffffffffffffffff1916908160001a90535060006001846002610f2c919061177b565b610f3691906117bd565b90505b6001811115610fd6577f3031323334353637383961626364656600000000000000000000000000000000600f861660108110610f7857610f77611820565b5b1a60f81b828281518110610f8f57610f8e611820565b5b60200101907effffffffffffffffffffffffffffffffffffffffffffffffffffffffffffff1916908160001a905350600485901c945080610fcf9061184f565b9050610f39565b506000841461101a576040517f08c379a0000000000000000000000000000000000000000000000000000000008152600401611011906118c4565b60405180910390fd5b8091505092915050565b600080fd5b60007fffffffff0000000000000000000000000000000000000000000000000000000082169050919050565b61105e81611029565b811461106957600080fd5b50565b60008135905061107b81611055565b92915050565b60006020828403121561109757611096611024565b5b60006110a58482850161106c565b91505092915050565b60008115159050919050565b6110c3816110ae565b82525050565b60006020820190506110de60008301846110ba565b92915050565b6000819050919050565b6110f7816110e4565b82525050565b600060208201905061111260008301846110ee565b92915050565b600081519050919050565b600082825260208201905092915050565b60005b83811015611152578082015181840152602081019050611137565b60008484015250505050565b6000601f19601f8301169050919050565b600061117a82611118565b6111848185611123565b9350611194818560208601611134565b61119d8161115e565b840191505092915050565b600060208201905081810360008301526111c2818461116f565b905092915050565b6000819050919050565b6111dd816111ca565b81146111e857600080fd5b50565b6000813590506111fa816111d4565b92915050565b60006020828403121561121657611215611024565b5b6000611224848285016111eb565b91505092915050565b611236816111ca565b82525050565b6000602082019050611251600083018461122d565b92915050565b600073ffffffffffffffffffffffffffffffffffffffff82169050919050565b600061128282611257565b9050919050565b61129281611277565b811461129d57600080fd5b50565b6000813590506112af81611289565b92915050565b600080604083850312156112cc576112cb611024565b5b60006112da858286016111eb565b92505060206112eb858286016112a0565b9150509250929050565b6112fe81611277565b82525050565b600060208201905061131960008301846112f5565b92915050565b611328816110e4565b811461133357600080fd5b50565b6000815190506113458161131f565b92915050565b60006020828403121561136157611360611024565b5b600061136f84828501611336565b91505092915050565b7f546865207461736b20697320616c726561647920636f6d706c65746564000000600082015250565b60006113ae601d83611123565b91506113b982611378565b602082019050919050565b600060208201905081810360008301526113dd816113a1565b9050919050565b7f546865207061796565206164647265737320697320656d707479000000000000600082015250565b600061141a601a83611123565b9150611425826113e4565b602082019050919050565b600060208201905081810360008301526114498161140d565b9050919050565b600060408201905061146560008301856112f5565b61147260208301846110ee565b9392505050565b611482816110ae565b811461148d57600080fd5b50565b60008151905061149f81611479565b92915050565b6000602082840312156114bb576114ba611024565b5b60006114c984828501611490565b91505092915050565b7f4e487b7100000000000000000000000000000000000000000000000000000000600052602260045260246000fd5b6000600282049050600182168061151957607f821691505b60208210810361152c5761152b6114d2565b5b50919050565b7f416363657373436f6e74726f6c3a2063616e206f6e6c792072656e6f756e636560008201527f20726f6c657320666f722073656c660000000000000000000000000000000000602082015250565b600061158e602f83611123565b915061159982611532565b604082019050919050565b600060208201905081810360008301526115bd81611581565b9050919050565b6000819050919050565b60006115e96115e46115df84611257565b6115c4565b611257565b9050919050565b60006115fb826115ce565b9050919050565b600061160d826115f0565b9050919050565b61161d81611602565b82525050565b60006020820190506116386000830184611614565b92915050565b600081905092915050565b7f416363657373436f6e74726f6c3a206163636f756e7420000000000000000000600082015250565b600061167f60178361163e565b915061168a82611649565b601782019050919050565b60006116a082611118565b6116aa818561163e565b93506116ba818560208601611134565b80840191505092915050565b7f206973206d697373696e6720726f6c6520000000000000000000000000000000600082015250565b60006116fc60118361163e565b9150611707826116c6565b601182019050919050565b600061171d82611672565b91506117298285611695565b9150611734826116ef565b91506117408284611695565b91508190509392505050565b7f4e487b7100000000000000000000000000000000000000000000000000000000600052601160045260246000fd5b6000611786826110e4565b9150611791836110e4565b925082820261179f816110e4565b915082820484148315176117b6576117b561174c565b5b5092915050565b60006117c8826110e4565b91506117d3836110e4565b92508282019050808211156117eb576117ea61174c565b5b92915050565b7f4e487b7100000000000000000000000000000000000000000000000000000000600052604160045260246000fd5b7f4e487b7100000000000000000000000000000000000000000000000000000000600052603260045260246000fd5b600061185a826110e4565b91506000820361186d5761186c61174c565b5b600182039050919050565b7f537472696e67733a20686578206c656e67746820696e73756666696369656e74600082015250565b60006118ae602083611123565b91506118b982611878565b602082019050919050565b600060208201905081810360008301526118dd816118a1565b905091905056fea26469706673582212205845441e586d3a47635e2a87ee9efe911e3f70f65c2f1fbf88f6dc0705d987e764736f6c63430008120033",
  "linkReferences": {},
  "deployedLinkReferences": {}
}